:1000000071C0000081C000007FC000007DC0000002
:100010007BC0000079C0000077C0000075C0000000
:1000200073C0000071C000006FC000006DC0000010
:100030006BC0000069C0000067C0000065C0000020
:1000400063C0000061C000005FC000005DC0000030
:100050005BC0000059C0000057C0000064C0000031
:1000600053C0000051C000004FC000004DC0000050
:100070004BC0000049C0000047C0000045C0000060
:1000800043C0000041C000003FC000003DC0000070
:100090003BC0000039C0000037C0000035C0000080
:1000A00033C0000031C000002FC000002DC0000090
:1000B0002BC0000029C0000027C0000025C00000A0
:1000C00023C0000021C000001FC000001DC00000B0
:1000D0001BC0000019C0000017C0000015C00000C0
:1000E00013C0000011241FBECFEFD1E2DEBFCDBF91
:1000F00000E00CBF22E0A0E0B2E001C01D92A930F8
:10010000B207E1F705D0BBC07BCF089508950895ED
:1001100054D0FDDFFADFC0E0D0E0F8DF2097E9F34C
:100120000E940000FACF1F920F920FB60F92112477
:100130002F933F938F939F93AF93BF93809101022F
:1001400090910202A0910302B0910402309100024A
:1001500023E0230F2D3720F40196A11DB11D05C00A
:1001600026E8230F0296A11DB11D20930002809363
:10017000010290930202A0930302B09304028091C3
:10018000050290910602A0910702B0910802019623
:10019000A11DB11D8093050290930602A093070252
:1001A000B0930802BF91AF919F918F913F912F9192
:1001B0000F900FBE0F901F901895789484B58260B1
:1001C00084BD84B5816084BD85B5826085BD85B5FB
:1001D000816085BDEEE6F0E0808181608083E1E8AA
:1001E000F0E01082808182608083808181608083E2
:1001F000E0E8F0E0808181608083E1EBF0E08081E5
:1002000084608083E0EBF0E0808181608083E1E9BD
:10021000F0E0808182608083808181608083E0E97A
:10022000F0E0808181608083E1EAF0E0808182609B
:100230008083808181608083E0EAF0E0808181605A
:100240008083E1E2F1E0808182608083808181604F
:100250008083E0E2F1E0808181608083EAE7F0E082
:1002600080818460808380818260808380818160DE
:1002700080838081806880831092C1000895F89403
:02028000FFCFAE
:00000001FF
