S01200006E6F6F705F6D6963617A2E73726563E3
S11300000C9449000C9468000C9468000C946800EB
S11300100C9468000C9468000C9468000C946800BC
S11300200C9468000C9468000C9468000C946800AC
S11300300C9468000C9468000C9468000C9468009C
S11300400C9468000C9468000C9468000C9468008C
S11300500C9468000C9468000C9468000C9468007C
S11300600C9468000C9468000C9468000C9468006C
S11300700C9468000C9468000C9468000C9468005C
S11300800C9468000C9468000C94680000081C1818
S1130090141011241FBECFEFD0E1DEBFCDBF11E09D
S11300A0A0E0B1E0E0E6F2E000E00BBF02C00790A0
S11300B00D92A030B107D9F711E0A0E0B1E001C082
S11300C01D92A430B107E1F70E948E000C942F0119
S11300D00C9400008FB7F894992708958FBF089562
S11300E0809100018F3F19F480E090E00895282F5B
S11300F03327F901E050FF4F8081809300018F3F47
S113010011F4809303018FEF808390E02F3F09F473
S113011091E081E09827892F992708951F931FB7AD
S1130120F8948FEF809300018093030181E08EBDEA
S113013088E080BF83E083BF8CB59DB54AE72CB5CA
S11301403DB52817390708F44150442311F0C9017B
S1130150F6CF92B782B78917E9F32CB53DB592B7BC
S113016082B78917E9F38CB59DB5821B930B409632
S113017025E0969587952A95E1F79093020180935F
S1130180010113BE83B78EBD8EB580BF12BE1DBCE8
S11301901CBC8FEF86BF86B780937C0080B79927FD
S11301A087709070892BD1F715BA8FEF84BBD498E0
S11301B0DC9880E285BF0E9470008823E1F70E94EA
S11301C070008823E1F7812F99278FBF78948FB728
S11301D0F894482F55272CC087B7887BC1F48091A9
S11301E07D008B7FA1F46E9912C08AB190919A0020
S11301F0892B807C61F48091740082FD08C0379B58
S113020003C0E1E0F0E005C0E5E0F0E002C0E0E0BA
S1130210F0E085B7E63008F0E5E0FF27E457FF4F4C
S1130220E491837E8062E82BE5BF78948895F89406
S1130230809100018F3F81F2282F3327F901E0508C
S1130240FF4F8081809300018F3F11F4809303015D
S11302508FEF80832F3F09F4BFCF4FBFB8CFFFCFBD
S9030000FC
